{
  "contractName": "ChainList",
  "abi": [
    {
      "anonymous": false,
      "inputs": [
        {
          "indexed": true,
          "internalType": "uint256",
          "name": "_id",
          "type": "uint256"
        },
        {
          "indexed": true,
          "internalType": "address",
          "name": "_seller",
          "type": "address"
        },
        {
          "indexed": true,
          "internalType": "address",
          "name": "_buyer",
          "type": "address"
        },
        {
          "indexed": false,
          "internalType": "string",
          "name": "_name",
          "type": "string"
        },
        {
          "indexed": false,
          "internalType": "uint256",
          "name": "_price",
          "type": "uint256"
        }
      ],
      "name": "LogBuyArticle",
      "type": "event"
    },
    {
      "anonymous": false,
      "inputs": [
        {
          "indexed": true,
          "internalType": "uint256",
          "name": "_id",
          "type": "uint256"
        },
        {
          "indexed": true,
          "internalType": "address",
          "name": "_seller",
          "type": "address"
        },
        {
          "indexed": false,
          "internalType": "string",
          "name": "_name",
          "type": "string"
        },
        {
          "indexed": false,
          "internalType": "uint256",
          "name": "_price",
          "type": "uint256"
        }
      ],
      "name": "LogSellArticle",
      "type": "event"
    },
    {
      "inputs": [
        {
          "internalType": "uint256",
          "name": "",
          "type": "uint256"
        }
      ],
      "name": "articles",
      "outputs": [
        {
          "internalType": "uint256",
          "name": "id",
          "type": "uint256"
        },
        {
          "internalType": "address",
          "name": "seller",
          "type": "address"
        },
        {
          "internalType": "address",
          "name": "buyer",
          "type": "address"
        },
        {
          "internalType": "string",
          "name": "name",
          "type": "string"
        },
        {
          "internalType": "string",
          "name": "description",
          "type": "string"
        },
        {
          "internalType": "uint256",
          "name": "price",
          "type": "uint256"
        }
      ],
      "stateMutability": "view",
      "type": "function",
      "constant": true
    },
    {
      "inputs": [],
      "name": "kill",
      "outputs": [],
      "stateMutability": "nonpayable",
      "type": "function"
    },
    {
      "inputs": [
        {
          "internalType": "string",
          "name": "_name",
          "type": "string"
        },
        {
          "internalType": "string",
          "name": "_description",
          "type": "string"
        },
        {
          "internalType": "uint256",
          "name": "_price",
          "type": "uint256"
        }
      ],
      "name": "sellArticle",
      "outputs": [],
      "stateMutability": "nonpayable",
      "type": "function"
    },
    {
      "inputs": [],
      "name": "getNumberOfArticles",
      "outputs": [
        {
          "internalType": "uint256",
          "name": "",
          "type": "uint256"
        }
      ],
      "stateMutability": "view",
      "type": "function",
      "constant": true
    },
    {
      "inputs": [],
      "name": "getArticlesForSale",
      "outputs": [
        {
          "internalType": "uint256[]",
          "name": "",
          "type": "uint256[]"
        }
      ],
      "stateMutability": "view",
      "type": "function",
      "constant": true
    },
    {
      "inputs": [
        {
          "internalType": "uint256",
          "name": "_id",
          "type": "uint256"
        }
      ],
      "name": "buyArticle",
      "outputs": [],
      "stateMutability": "payable",
      "type": "function",
      "payable": true
    }
  ],
  "bytecode": "0x6080604052600080546001600160a01b03191633179055610bbe806100256000396000f3fe6080604052600436106100555760003560e01c80631cc4baa81461005a57806341c0e1b5146100795780637f6be3da1461008e57806389da85d3146100f3578063d26095151461011a578063edcfafe614610256575b600080fd5b6100776004803603602081101561007057600080fd5b503561039e565b005b34801561008557600080fd5b5061007761066a565b34801561009a57600080fd5b506100a361068f565b60408051602080825283518183015283519192839290830191858101910280838360005b838110156100df5781810151838201526020016100c7565b505050509050019250505060405180910390f35b3480156100ff57600080fd5b5061010861079c565b60408051918252519081900360200190f35b34801561012657600080fd5b506100776004803603606081101561013d57600080fd5b81019060208101813564010000000081111561015857600080fd5b82018360208201111561016a57600080fd5b8035906020019184600183028401116401000000008311171561018c57600080fd5b91908080601f01602080910402602001604051908101604052809392919081815260200183838082843760009201919091525092959493602081019350359150506401000000008111156101df57600080fd5b8201836020820111156101f157600080fd5b8035906020019184600183028401116401000000008311171561021357600080fd5b91908080601f01602080910402602001604051908101604052809392919081815260200183838082843760009201919091525092955050913592506107a2915050565b34801561026257600080fd5b506102806004803603602081101561027957600080fd5b503561091a565b60405180878152602001866001600160a01b03166001600160a01b03168152602001856001600160a01b03166001600160a01b031681526020018060200180602001848152602001838103835286818151815260200191508051906020019080838360005b838110156102fd5781810151838201526020016102e5565b50505050905090810190601f16801561032a5780820380516001836020036101000a031916815260200191505b50838103825285518152855160209182019187019080838360005b8381101561035d578181015183820152602001610345565b50505050905090810190601f16801561038a5780820380516001836020036101000a031916815260200191505b509850505050505050505060405180910390f35b6000600254116103f5576040805162461bcd60e51b815260206004820152601d60248201527f5468657265206973206e6f2061727469636c6520666f722073616c652e000000604482015290519081900360640190fd5b60008111801561040757506002548111155b610450576040805162461bcd60e51b81526020600482015260156024820152741d1a1948185c9d1a58db19481b9bdd08195e1a5cdd605a1b604482015290519081900360640190fd5b600081815260016020526040902060028101546001600160a01b0316156104a85760405162461bcd60e51b8152600401808060200182810382526022815260200180610b306022913960400191505060405180910390fd5b60018101546001600160a01b03163314156104f45760405162461bcd60e51b8152600401808060200182810382526028815260200180610b086028913960400191505060405180910390fd5b806005015434146105365760405162461bcd60e51b8152600401808060200182810382526037815260200180610b526037913960400191505060405180910390fd5b6002810180546001600160a01b0319163317905560018101546040516001600160a01b0391909116903480156108fc02916000818181858888f19350505050158015610586573d6000803e3d6000fd5b50600280820154600180840154845460058601546040805160208101839052818152600389018054600019978116156101000297909701909616979097049087018190526001600160a01b0395861696939095169491937f5d28bc06e6f0c45405abfe77bd77236c767f9bd9d044ae2d954a415a2b4823e093909281906060820190859080156106575780601f1061062c57610100808354040283529160200191610657565b820191906000526020600020905b81548152906001019060200180831161063a57829003601f168201915b5050935050505060405180910390a45050565b6000546001600160a01b0316331461068157600080fd5b6000546001600160a01b0316ff5b6060806002546040519080825280602002602001820160405280156106be578160200160208202803883390190505b509050600060015b6002548111610725576000818152600160205260409020600201546001600160a01b031661071d57600081815260016020526040902054835184908490811061070b57fe5b60209081029190910101526001909101905b6001016106c6565b50606081604051908082528060200260200182016040528015610752578160200160208202803883390190505b50905060005b828110156107935783818151811061076c57fe5b602002602001015182828151811061078057fe5b6020908102919091010152600101610758565b50925050505b90565b60025490565b6002805460019081018083556040805160c0810182528281523360208083019182526000838501818152606085018c8152608086018c905260a086018b905296825287835294902083518155915195820180546001600160a01b039788166001600160a01b031991821617909155935196820180549790961696909316959095179093559051805192939261083d9260038501920190610a6f565b5060808201518051610859916004840191602090910190610a6f565b5060a08201518160050155905050336001600160a01b03166002547fe2ebb0c522a8b90a93f45a5dfd3c0e0516b81519fdf199efe51c474642fe8cec85846040518080602001838152602001828103825284818151815260200191508051906020019080838360005b838110156108da5781810151838201526020016108c2565b50505050905090810190601f1680156109075780820380516001836020036101000a031916815260200191505b50935050505060405180910390a3505050565b60016020818152600092835260409283902080548184015460028084015460038501805489516101009982161599909902600019011692909204601f810187900487028801870190985287875292966001600160a01b03928316969290931694919290918301828280156109cf5780601f106109a4576101008083540402835291602001916109cf565b820191906000526020600020905b8154815290600101906020018083116109b257829003601f168201915b5050505060048301805460408051602060026001851615610100026000190190941693909304601f8101849004840282018401909252818152949594935090830182828015610a5f5780601f10610a3457610100808354040283529160200191610a5f565b820191906000526020600020905b815481529060010190602001808311610a4257829003601f168201915b5050505050908060050154905086565b828054600181600116156101000203166002900490600052602060002090601f016020900481019282601f10610ab057805160ff1916838001178555610add565b82800160010185558215610add579182015b82811115610add578251825591602001919060010190610ac2565b50610ae9929150610aed565b5090565b61079991905b80821115610ae95760008155600101610af356fe5468652073656c6c65722063616e6e6f7420627579207468656972206f776e2061727469636c652e5468652061727469636c652068617320616c7265616479206265656e20736f6c642e546865207072696365206f66207468652061727469636c6520646f6573206e6f74206d61746368207468652076616c75652073656e742ea26469706673582212201cdbc41a0fb6b93bc1c3403925cf832dfb0b6e472d8639bef352ee8bd3a95f5664736f6c63430006000033",
  "source": "pragma solidity >0.4.17 < 0.9.0;\r\n\r\nimport \"./Ownable.sol\";\r\n\r\ncontract ChainList is Ownable{\r\n    //custom types\r\n    struct Article{\r\n        uint id;\r\n        address  seller;\r\n        address buyer;\r\n        string name;\r\n        string description;\r\n        uint256 price;\r\n    }\r\n    \r\n    //state variables\r\n    \r\n    mapping( uint => Article ) public articles;\r\n    uint articleCounter;\r\n\r\n\r\n    //events\r\n    event LogSellArticle(\r\n        uint indexed _id,\r\n        address indexed _seller,\r\n        string _name,\r\n        uint256 _price\r\n    );\r\n\r\n    event LogBuyArticle(\r\n        uint indexed _id,\r\n        address indexed _seller,\r\n        address indexed _buyer,\r\n        string _name,\r\n        uint256 _price\r\n    );\r\n\r\n    //event LogMessage( string message);\r\n\r\n    //consturtor\r\n    \r\n\r\n    //deactivate the contract\r\n    function kill() public onlyOwner{\r\n        //only allow the contract owner\r\n        //require(msg.sender == owner);\r\n        selfdestruct(payable(owner));\r\n    }\r\n    //sell article \r\n    function sellArticle(string memory _name ,string memory _description, uint256  _price) public{\r\n        //increment article counter\r\n        articleCounter++;\r\n        //store this article\r\n        articles[articleCounter]= Article(\r\n            articleCounter,\r\n            msg.sender,\r\n            address(0x0),\r\n            _name,\r\n            _description,\r\n            _price\r\n        );\r\n        emit LogSellArticle(articleCounter, msg.sender,_name,_price);\r\n    }\r\n\r\n    //get an article\r\n    //function getArticle() public view returns(\r\n       // address _seller,\r\n        //address _buyer,\r\n       // string memory _name ,\r\n       // string memory _description, \r\n       // uint256  _price){\r\n        //    return(seller, buyer,name, description,price);\r\n    //}\r\n\r\n    //fetch the number of articles\r\n    function getNumberOfArticles() public view returns(uint){\r\n        return articleCounter;\r\n    }\r\n\r\n    //fetch and return all article Ids for article still for sale\r\n    function getArticlesForSale() public view returns( uint[] memory){\r\n        //prepare output array\r\n        uint[] memory articleIds = new uint[](articleCounter);\r\n        uint numberOfArticlesForSale=0;\r\n        for(uint i= 1; i<= articleCounter; i++)\r\n        {\r\n            //keep the ID if the article is still for sale\r\n            if(articles[i].buyer == address(0x0)){\r\n                articleIds[numberOfArticlesForSale]= articles[i].id;\r\n                numberOfArticlesForSale++;\r\n            }\r\n           \r\n        }\r\n        //copy the articleIds array into a smaller forSale Array\r\n        uint[] memory forSale=new uint[](numberOfArticlesForSale) ;\r\n        for(uint j = 0; j< numberOfArticlesForSale; j++){\r\n            forSale[j]= articleIds[j];\r\n        }\r\n        return forSale;\r\n    }\r\n\r\n    //buy an article\r\n    function buyArticle( uint _id) payable public{\r\n        //we check whether there is an article for sale\r\n        require( articleCounter > 0,\"There is no article for sale.\");\r\n        \r\n        //we check that the article exists\r\n        require(_id>0 && _id<= articleCounter,\"the article not exist\");\r\n        //we retrieve the article for the mapping\r\n        Article storage article =articles[_id];\r\n        //we check that the article has not bee sold yet \r\n        require(article.buyer == address(0x0),\"The article has already been sold.\");\r\n        //emit LogMessage(\"buyer must e empty checked\");\r\n        //we don't allow the seller to buy his own article \r\n        require(msg.sender != article.seller, \"The seller cannot buy their own article.\");\r\n        //emit LogMessage(\"buyer must not be sender checked\");\r\n\r\n        //we check that the value sent corresponds to the price of the article\r\n        require(msg.value == article.price, \"The price of the article does not match the value sent.\");\r\n        //emit LogMessage(\"price must be the same checked\");\r\n\r\n        //keep buyer's information\r\n\r\n        article.buyer = msg.sender;\r\n\r\n\r\n        //the buyer can pay the seller\r\n        //address payable sellerPayable = payable(seller);\r\n        \r\n        (payable(article.seller)).transfer(msg.value);\r\n\r\n        //trigger the event\r\n        emit LogBuyArticle(article.id,article.seller,article.buyer, article.name, article.price);\r\n\r\n    }\r\n}",
  "sourcePath": "D:\\ifi\\web3\\certification\\chainskills\\training\\chainlist\\contracts\\ChainList.sol",
  "compiler": {
    "name": "solc",
    "version": "0.6.0+commit.26b70077.Emscripten.clang"
  },
  "schemaVersion": "3.4.11",
  "updatedAt": "2023-01-09T22:09:51.177Z",
  "networkType": "ethereum",
  "devdoc": {
    "methods": {}
  },
  "userdoc": {
    "methods": {}
  }
}